{
  "contractName": "DetectionApp",
  "abi": [
    {
      "constant": true,
      "inputs": [],
      "name": "medicineCount",
      "outputs": [
        {
          "internalType": "uint256",
          "name": "",
          "type": "uint256"
        }
      ],
      "payable": false,
      "stateMutability": "view",
      "type": "function"
    }
  ],
  "bytecode": "0x608060405260008055348015601357600080fd5b506084806100226000396000f3fe6080604052348015600f57600080fd5b506004361060285760003560e01c80634dafd49014602d575b600080fd5b60336049565b6040518082815260200191505060405180910390f35b6000548156fea265627a7a72315820483fb4637eeaa5e9ac054a391d6b1e26427d019fceb27fd8a3f0af7be4842a8664736f6c63430005100032",
  "source": "pragma solidity ^0.5.0;\r\n\r\ncontract DetectionApp{\r\n\r\n    uint public medicineCount=0;\r\n\r\n}",
  "sourcePath": "C:/Users/user/Desktop/mini_project/contracts/DetectionApp.sol",
  "compiler": {
    "name": "solc",
    "version": "0.5.16+commit.9c3226ce.Emscripten.clang"
  },
  "schemaVersion": "3.3.2",
  "updatedAt": "2020-11-29T13:45:55.625Z",
  "networkType": "ethereum",
  "devdoc": {
    "methods": {}
  },
  "userdoc": {
    "methods": {}
  }
}