{
  "contractName": "Detection",
  "abi": [
    {
      "anonymous": false,
      "inputs": [
        {
          "indexed": false,
          "internalType": "uint256",
          "name": "index",
          "type": "uint256"
        }
      ],
      "name": "Added",
      "type": "event"
    },
    {
      "constant": true,
      "inputs": [
        {
          "internalType": "string",
          "name": "_a",
          "type": "string"
        },
        {
          "internalType": "string",
          "name": "_b",
          "type": "string"
        }
      ],
      "name": "concat",
      "outputs": [
        {
          "internalType": "string",
          "name": "",
          "type": "string"
        }
      ],
      "payable": false,
      "stateMutability": "pure",
      "type": "function"
    },
    {
      "constant": false,
      "inputs": [
        {
          "internalType": "uint256",
          "name": "_rate",
          "type": "uint256"
        },
        {
          "internalType": "string",
          "name": "_name",
          "type": "string"
        },
        {
          "internalType": "string",
          "name": "_company",
          "type": "string"
        },
        {
          "internalType": "string",
          "name": "_date",
          "type": "string"
        },
        {
          "internalType": "string",
          "name": "_ingredients",
          "type": "string"
        },
        {
          "internalType": "string",
          "name": "_description",
          "type": "string"
        }
      ],
      "name": "AddMedicine",
      "outputs": [
        {
          "internalType": "bool",
          "name": "",
          "type": "bool"
        }
      ],
      "payable": false,
      "stateMutability": "nonpayable",
      "type": "function"
    },
    {
      "constant": true,
      "inputs": [
        {
          "internalType": "uint256",
          "name": "_id",
          "type": "uint256"
        }
      ],
      "name": "SearchMedicine",
      "outputs": [
        {
          "internalType": "string",
          "name": "",
          "type": "string"
        }
      ],
      "payable": false,
      "stateMutability": "view",
      "type": "function"
    }
  ],
  "bytecode": "0x60806040526000805534801561001457600080fd5b50610f21806100246000396000f3fe608060405234801561001057600080fd5b50600436106100415760003560e01c80630e625cf11461004657806379909c0a1461037f57806389c19ddb14610426575b600080fd5b610365600480360360c081101561005c57600080fd5b81019080803590602001909291908035906020019064010000000081111561008357600080fd5b82018360208201111561009557600080fd5b803590602001918460018302840111640100000000831117156100b757600080fd5b91908080601f016020809104026020016040519081016040528093929190818152602001838380828437600081840152601f19601f8201169050808301925050505050505091929192908035906020019064010000000081111561011a57600080fd5b82018360208201111561012c57600080fd5b8035906020019184600183028401116401000000008311171561014e57600080fd5b91908080601f016020809104026020016040519081016040528093929190818152602001838380828437600081840152601f19601f820116905080830192505050505050509192919290803590602001906401000000008111156101b157600080fd5b8201836020820111156101c357600080fd5b803590602001918460018302840111640100000000831117156101e557600080fd5b91908080601f016020809104026020016040519081016040528093929190818152602001838380828437600081840152601f19601f8201169050808301925050505050505091929192908035906020019064010000000081111561024857600080fd5b82018360208201111561025a57600080fd5b8035906020019184600183028401116401000000008311171561027c57600080fd5b91908080601f016020809104026020016040519081016040528093929190818152602001838380828437600081840152601f19601f820116905080830192505050505050509192919290803590602001906401000000008111156102df57600080fd5b8201836020820111156102f157600080fd5b8035906020019184600183028401116401000000008311171561031357600080fd5b91908080601f016020809104026020016040519081016040528093929190818152602001838380828437600081840152601f19601f8201169050808301925050505050505091929192905050506105f1565b604051808215151515815260200191505060405180910390f35b6103ab6004803603602081101561039557600080fd5b81019080803590602001909291905050506107aa565b6040518080602001828103825283818151815260200191508051906020019080838360005b838110156103eb5780820151818401526020810190506103d0565b50505050905090810190601f1680156104185780820380516001836020036101000a031916815260200191505b509250505060405180910390f35b6105766004803603604081101561043c57600080fd5b810190808035906020019064010000000081111561045957600080fd5b82018360208201111561046b57600080fd5b8035906020019184600183028401116401000000008311171561048d57600080fd5b91908080601f016020809104026020016040519081016040528093929190818152602001838380828437600081840152601f19601f820116905080830192505050505050509192919290803590602001906401000000008111156104f057600080fd5b82018360208201111561050257600080fd5b8035906020019184600183028401116401000000008311171561052457600080fd5b91908080601f016020809104026020016040519081016040528093929190818152602001838380828437600081840152601f19601f820116905080830192505050505050509192919290505050610ca3565b6040518080602001828103825283818151815260200191508051906020019080838360005b838110156105b657808201518184015260208101905061059b565b50505050905090810190601f1680156105e35780820380516001836020036101000a031916815260200191505b509250505060405180910390f35b60006105fb610dec565b60405180610100016040528088815260200160005481526020018781526020013373ffffffffffffffffffffffffffffffffffffffff1681526020018681526020018981526020018581526020018481525090508060016000805481526020019081526020016000206000820151816000019080519060200190610680929190610e47565b506020820151816001015560408201518160020190805190602001906106a7929190610e47565b5060608201518160030160006101000a81548173ffffffffffffffffffffffffffffffffffffffff021916908373ffffffffffffffffffffffffffffffffffffffff160217905550608082015181600401908051906020019061070b929190610e47565b5060a0820151816005015560c0820151816006019080519060200190610732929190610e47565b5060e082015181600701908051906020019061074f929190610e47565b509050506001600054016000819055507f64a55044d1f2eddebe1b90e8e2853e8e96931cefadbfa0b2ceb34bee360619416001600054036040518082815260200191505060405180910390a160019150509695505050505050565b606060005482106107ba57600080fd5b60606040518060400160405280600e81526020017f4d65646963696e65204e616d652000000000000000000000000000000000000081525090506108ac81600160008681526020019081526020016000206000018054600181600116156101000203166002900480601f0160208091040260200160405190810160405280929190818152602001828054600181600116156101000203166002900480156108a25780601f10610877576101008083540402835291602001916108a2565b820191906000526020600020905b81548152906001019060200180831161088557829003601f168201915b5050505050610ca3565b90506108ed816040518060400160405280600c81526020017f3c62723e4d6164656279203a0000000000000000000000000000000000000000815250610ca3565b90506109a781600160008681526020019081526020016000206002018054600181600116156101000203166002900480601f01602080910402602001604051908101604052809291908181526020018280546001816001161561010002031660029004801561099d5780601f106109725761010080835404028352916020019161099d565b820191906000526020600020905b81548152906001019060200180831161098057829003601f168201915b5050505050610ca3565b90506109e8816040518060400160405280601881526020017f3c62723e4d616e75666163747572696e6720446174653a200000000000000000815250610ca3565b9050610aa281600160008681526020019081526020016000206004018054600181600116156101000203166002900480601f016020809104026020016040519081016040528092919081815260200182805460018160011615610100020316600290048015610a985780601f10610a6d57610100808354040283529160200191610a98565b820191906000526020600020905b815481529060010190602001808311610a7b57829003601f168201915b5050505050610ca3565b9050610ae3816040518060400160405280601181526020017f3c62723e496e6772656469656e74733a20000000000000000000000000000000815250610ca3565b9050610b9d81600160008681526020019081526020016000206006018054600181600116156101000203166002900480601f016020809104026020016040519081016040528092919081815260200182805460018160011615610100020316600290048015610b935780601f10610b6857610100808354040283529160200191610b93565b820191906000526020600020905b815481529060010190602001808311610b7657829003601f168201915b5050505050610ca3565b9050610bde816040518060400160405280601181526020017f3c62723e4465736372697074696f6e3a20000000000000000000000000000000815250610ca3565b9050610c9881600160008681526020019081526020016000206007018054600181600116156101000203166002900480601f016020809104026020016040519081016040528092919081815260200182805460018160011615610100020316600290048015610c8e5780601f10610c6357610100808354040283529160200191610c8e565b820191906000526020600020905b815481529060010190602001808311610c7157829003601f168201915b5050505050610ca3565b905080915050919050565b6060808390506060839050606081518351016040519080825280601f01601f191660200182016040528015610ce75781602001600182028038833980820191505090505b5090506060819050600080905060008090505b8551811015610d6857858181518110610d0f57fe5b602001015160f81c60f81b838380600101945081518110610d2c57fe5b60200101907effffffffffffffffffffffffffffffffffffffffffffffffffffffffffffff1916908160001a9053508080600101915050610cfa565b5060008090505b8451811015610ddd57848181518110610d8457fe5b602001015160f81c60f81b838380600101945081518110610da157fe5b60200101907effffffffffffffffffffffffffffffffffffffffffffffffffffffffffffff1916908160001a9053508080600101915050610d6f565b50819550505050505092915050565b604051806101000160405280606081526020016000815260200160608152602001600073ffffffffffffffffffffffffffffffffffffffff168152602001606081526020016000815260200160608152602001606081525090565b828054600181600116156101000203166002900490600052602060002090601f016020900481019282601f10610e8857805160ff1916838001178555610eb6565b82800160010185558215610eb6579182015b82811115610eb5578251825591602001919060010190610e9a565b5b509050610ec39190610ec7565b5090565b610ee991905b80821115610ee5576000816000905550600101610ecd565b5090565b9056fea265627a7a72315820e76c4c2335d326f9f94e5e53b9be944e3ce277da981b900848fc13296c56abbb64736f6c63430005100032",
  "source": "pragma solidity ^0.5.11;\r\n\r\ncontract Detection{\r\n    \r\n    event Added(uint256 index);\r\n    \r\n    uint items=0;\r\n    \r\n    struct Medicine{\r\n        string MedicineName;\r\n        uint MedicineId;\r\n        string Company;\r\n        address Creator;\r\n        string Manufacturingdate;\r\n        uint Rate;\r\n        string Ingredients;\r\n        string Description;\r\n    }\r\n    \r\n    mapping(uint=>Medicine) AllMedicines;\r\n    \r\n    \r\n     function concat(string memory _a, string memory _b) public pure returns (string memory){\r\n        bytes memory bytes_a = bytes(_a);\r\n        bytes memory bytes_b = bytes(_b);\r\n        string memory length_ab = new string(bytes_a.length + bytes_b.length);\r\n        bytes memory bytes_c = bytes(length_ab);\r\n        uint k = 0;\r\n        for (uint i = 0; i < bytes_a.length; i++) bytes_c[k++] = bytes_a[i];\r\n        for (uint i = 0; i < bytes_b.length; i++) bytes_c[k++] = bytes_b[i];\r\n        return string(bytes_c);\r\n    }\r\n    \r\n\r\n    \r\n    function AddMedicine(uint _rate,string memory _name,string memory _company,string memory _date,string memory _ingredients,string memory _description)public returns(bool){\r\n            Medicine memory NewMedicine=Medicine(_name,items,_company,msg.sender,_date,_rate,_ingredients,_description);\r\n            AllMedicines[items]=NewMedicine;\r\n            items = items+1;\r\n            emit Added(items-1);\r\n            return true;\r\n            \r\n    }\r\n    \r\n    function SearchMedicine(uint _id)public view returns(string memory){\r\n           require(_id<items);\r\n           string memory output=\"Medicine Name \";\r\n           output=concat(output,AllMedicines[_id].MedicineName);\r\n           output=concat(output,\"<br>Madeby :\");\r\n           output=concat(output,AllMedicines[_id].Company);\r\n           output=concat(output,\"<br>Manufacturing Date: \");\r\n           output=concat(output,AllMedicines[_id].Manufacturingdate);\r\n           output=concat(output,\"<br>Ingredients: \");\r\n           output=concat(output,AllMedicines[_id].Ingredients);\r\n           output=concat(output,\"<br>Description: \");\r\n           output=concat(output,AllMedicines[_id].Description);\r\n           \r\n           return output;\r\n           \r\n           \r\n    } \r\n    \r\n    \r\n    \r\n    \r\n}",
  "sourcePath": "C:/Users/user/Desktop/mini_project/contracts/Detection.sol",
  "compiler": {
    "name": "solc",
    "version": "0.5.16+commit.9c3226ce.Emscripten.clang"
  },
  "schemaVersion": "3.3.2",
  "updatedAt": "2020-12-02T11:27:01.177Z",
  "networkType": "ethereum",
  "devdoc": {
    "methods": {}
  },
  "userdoc": {
    "methods": {}
  }
}